{
  "contractName": "Token",
  "abi": [
    {
      "anonymous": false,
      "inputs": [
        {
          "indexed": false,
          "name": "from",
          "type": "address"
        },
        {
          "indexed": false,
          "name": "to",
          "type": "address"
        },
        {
          "indexed": false,
          "name": "amount",
          "type": "uint256"
        }
      ],
      "name": "trade",
      "type": "event"
    },
    {
      "constant": false,
      "inputs": [],
      "name": "PQD",
      "outputs": [],
      "payable": false,
      "stateMutability": "nonpayable",
      "type": "function"
    },
    {
      "constant": false,
      "inputs": [
        {
          "name": "owner",
          "type": "address"
        },
        {
          "name": "amount",
          "type": "uint256"
        }
      ],
      "name": "buyPQD",
      "outputs": [],
      "payable": false,
      "stateMutability": "nonpayable",
      "type": "function"
    },
    {
      "constant": true,
      "inputs": [
        {
          "name": "owner",
          "type": "address"
        }
      ],
      "name": "getWallet",
      "outputs": [
        {
          "name": "",
          "type": "uint256"
        }
      ],
      "payable": false,
      "stateMutability": "view",
      "type": "function"
    },
    {
      "constant": false,
      "inputs": [
        {
          "name": "seller",
          "type": "address"
        },
        {
          "name": "buyer",
          "type": "address"
        },
        {
          "name": "amount",
          "type": "uint256"
        }
      ],
      "name": "exchange",
      "outputs": [],
      "payable": false,
      "stateMutability": "nonpayable",
      "type": "function"
    }
  ],
  "bytecode": "0x6060604052611388600055341561001557600080fd5b61053e806100246000396000f300606060405260043610610062576000357c0100000000000000000000000000000000000000000000000000000000900463ffffffff16806304d0a64714610067578063885e9a09146100b4578063969e3756146100f6578063cbcade6a14610157575b600080fd5b341561007257600080fd5b61009e600480803573ffffffffffffffffffffffffffffffffffffffff1690602001909190505061016c565b6040518082815260200191505060405180910390f35b34156100bf57600080fd5b6100f4600480803573ffffffffffffffffffffffffffffffffffffffff169060200190919080359060200190919050506101b5565b005b341561010157600080fd5b610155600480803573ffffffffffffffffffffffffffffffffffffffff1690602001909190803573ffffffffffffffffffffffffffffffffffffffff1690602001909190803590602001909190505061033f565b005b341561016257600080fd5b61016a6104ca565b005b6000600160008373ffffffffffffffffffffffffffffffffffffffff1673ffffffffffffffffffffffffffffffffffffffff168152602001908152602001600020549050919050565b80600160003373ffffffffffffffffffffffffffffffffffffffff1673ffffffffffffffffffffffffffffffffffffffff1681526020019081526020016000205411151561020257600080fd5b80600160003373ffffffffffffffffffffffffffffffffffffffff1673ffffffffffffffffffffffffffffffffffffffff1681526020019081526020016000206000828254039250508190555080600160008473ffffffffffffffffffffffffffffffffffffffff1673ffffffffffffffffffffffffffffffffffffffff168152602001908152602001600020600082825401925050819055507f5253baae951c6c1ec9e52923fcabe2150dbb78bada455bc92028823d8d9747f1338383604051808473ffffffffffffffffffffffffffffffffffffffff1673ffffffffffffffffffffffffffffffffffffffff1681526020018373ffffffffffffffffffffffffffffffffffffffff1673ffffffffffffffffffffffffffffffffffffffff168152602001828152602001935050505060405180910390a15050565b80600160008573ffffffffffffffffffffffffffffffffffffffff1673ffffffffffffffffffffffffffffffffffffffff1681526020019081526020016000205411151561038c57600080fd5b80600160008573ffffffffffffffffffffffffffffffffffffffff1673ffffffffffffffffffffffffffffffffffffffff1681526020019081526020016000206000828254039250508190555080600160008473ffffffffffffffffffffffffffffffffffffffff1673ffffffffffffffffffffffffffffffffffffffff168152602001908152602001600020600082825401925050819055507f5253baae951c6c1ec9e52923fcabe2150dbb78bada455bc92028823d8d9747f1838383604051808473ffffffffffffffffffffffffffffffffffffffff1673ffffffffffffffffffffffffffffffffffffffff1681526020018373ffffffffffffffffffffffffffffffffffffffff1673ffffffffffffffffffffffffffffffffffffffff168152602001828152602001935050505060405180910390a1505050565b600054600160003373ffffffffffffffffffffffffffffffffffffffff1673ffffffffffffffffffffffffffffffffffffffff168152602001908152602001600020819055505600a165627a7a72305820b96f55b777e6313e19b851a98ee2eeb4e53bdb3a9f5301981d0b698820ea2f2b0029",
  "source": "pragma solidity ^0.4.10;\r\ncontract Token{\r\n\tuint totalSupply=5000;\r\n   //create the method to provide PQD token\r\n   mapping(address => uint) balanceOf;\r\n   function PQD() public{\r\n        balanceOf[msg.sender]=totalSupply;\r\n   }\r\n   //create the event to show the data of transaction\r\n   event trade(address from, address to, uint amount);\r\n   //create the method to buy PQD token\r\n   function buyPQD(address owner, uint amount) public{\r\n       require(balanceOf[msg.sender]>amount);\r\n       balanceOf[msg.sender]-=amount;\r\n       balanceOf[owner]+=amount;\r\n       trade(msg.sender,owner,amount);\r\n   }\r\n   //create the method to get balance of the account\r\n   function getWallet(address owner) public constant returns(uint){\r\n       return balanceOf[owner];\r\n   }\r\n   //create the method to trade between to account\r\n   function exchange(address seller, address buyer, uint amount) public{\r\n       require(balanceOf[seller]>amount);\r\n       balanceOf[seller]-=amount;\r\n       balanceOf[buyer]+=amount;\r\n       trade(seller,buyer,amount);\r\n   }\r\n    \r\n}",
  "sourcePath": "D:\\Token\\contracts\\token.sol",
  "compiler": {
    "name": "solc",
    "version": "0.4.19+commit.c4cbbb05.Emscripten.clang"
  },
  "schemaVersion": "2.0.0",
  "updatedAt": "2018-05-16T03:02:25.672Z"
}